{
  "_format": "hh-sol-artifact-1",
  "contractName": "Lottery",
  "sourceName": "contracts/Lottery.sol",
  "abi": [
    {
      "inputs": [
        {
          "internalType": "uint256",
          "name": "_entranceFee",
          "type": "uint256"
        },
        {
          "internalType": "uint256",
          "name": "_interval",
          "type": "uint256"
        },
        {
          "internalType": "address",
          "name": "_vrfCoordinatorV2",
          "type": "address"
        },
        {
          "internalType": "bytes32",
          "name": "_gasLane",
          "type": "bytes32"
        },
        {
          "internalType": "uint64",
          "name": "_subscriptionId",
          "type": "uint64"
        },
        {
          "internalType": "uint32",
          "name": "_callbackGasLimit",
          "type": "uint32"
        }
      ],
      "stateMutability": "nonpayable",
      "type": "constructor"
    },
    {
      "inputs": [],
      "name": "LotteryNotOpen",
      "type": "error"
    },
    {
      "inputs": [],
      "name": "NotEnoughEntranceFee",
      "type": "error"
    },
    {
      "inputs": [
        {
          "internalType": "address",
          "name": "have",
          "type": "address"
        },
        {
          "internalType": "address",
          "name": "want",
          "type": "address"
        }
      ],
      "name": "OnlyCoordinatorCanFulfill",
      "type": "error"
    },
    {
      "inputs": [],
      "name": "TransferFailed",
      "type": "error"
    },
    {
      "inputs": [],
      "name": "UpkeepNotNeeded",
      "type": "error"
    },
    {
      "anonymous": false,
      "inputs": [
        {
          "indexed": true,
          "internalType": "address",
          "name": "player",
          "type": "address"
        }
      ],
      "name": "LotteryEntered",
      "type": "event"
    },
    {
      "anonymous": false,
      "inputs": [
        {
          "indexed": true,
          "internalType": "uint256",
          "name": "requestId",
          "type": "uint256"
        }
      ],
      "name": "RequestLotteryWinner",
      "type": "event"
    },
    {
      "anonymous": false,
      "inputs": [
        {
          "indexed": true,
          "internalType": "address",
          "name": "winner",
          "type": "address"
        }
      ],
      "name": "WinnerPicked",
      "type": "event"
    },
    {
      "inputs": [],
      "name": "NUM_WORDS",
      "outputs": [
        {
          "internalType": "uint32",
          "name": "",
          "type": "uint32"
        }
      ],
      "stateMutability": "view",
      "type": "function"
    },
    {
      "inputs": [],
      "name": "REQUEST_CONFIRMATIONS",
      "outputs": [
        {
          "internalType": "uint16",
          "name": "",
          "type": "uint16"
        }
      ],
      "stateMutability": "view",
      "type": "function"
    },
    {
      "inputs": [],
      "name": "callbackGasLimit",
      "outputs": [
        {
          "internalType": "uint32",
          "name": "",
          "type": "uint32"
        }
      ],
      "stateMutability": "view",
      "type": "function"
    },
    {
      "inputs": [
        {
          "internalType": "bytes",
          "name": "",
          "type": "bytes"
        }
      ],
      "name": "checkUpkeep",
      "outputs": [
        {
          "internalType": "bool",
          "name": "upkeepNeeded",
          "type": "bool"
        },
        {
          "internalType": "bytes",
          "name": "",
          "type": "bytes"
        }
      ],
      "stateMutability": "view",
      "type": "function"
    },
    {
      "inputs": [],
      "name": "enterLottery",
      "outputs": [],
      "stateMutability": "payable",
      "type": "function"
    },
    {
      "inputs": [],
      "name": "entranceFee",
      "outputs": [
        {
          "internalType": "uint256",
          "name": "",
          "type": "uint256"
        }
      ],
      "stateMutability": "view",
      "type": "function"
    },
    {
      "inputs": [],
      "name": "interval",
      "outputs": [
        {
          "internalType": "uint256",
          "name": "",
          "type": "uint256"
        }
      ],
      "stateMutability": "view",
      "type": "function"
    },
    {
      "inputs": [],
      "name": "lastTimestamp",
      "outputs": [
        {
          "internalType": "uint256",
          "name": "",
          "type": "uint256"
        }
      ],
      "stateMutability": "view",
      "type": "function"
    },
    {
      "inputs": [],
      "name": "lotteryState",
      "outputs": [
        {
          "internalType": "enum Lottery.LotteryState",
          "name": "",
          "type": "uint8"
        }
      ],
      "stateMutability": "view",
      "type": "function"
    },
    {
      "inputs": [
        {
          "internalType": "bytes",
          "name": "",
          "type": "bytes"
        }
      ],
      "name": "performUpkeep",
      "outputs": [],
      "stateMutability": "nonpayable",
      "type": "function"
    },
    {
      "inputs": [
        {
          "internalType": "uint256",
          "name": "",
          "type": "uint256"
        }
      ],
      "name": "players",
      "outputs": [
        {
          "internalType": "address payable",
          "name": "",
          "type": "address"
        }
      ],
      "stateMutability": "view",
      "type": "function"
    },
    {
      "inputs": [
        {
          "internalType": "uint256",
          "name": "requestId",
          "type": "uint256"
        },
        {
          "internalType": "uint256[]",
          "name": "randomWords",
          "type": "uint256[]"
        }
      ],
      "name": "rawFulfillRandomWords",
      "outputs": [],
      "stateMutability": "nonpayable",
      "type": "function"
    },
    {
      "inputs": [],
      "name": "recentWinner",
      "outputs": [
        {
          "internalType": "address",
          "name": "",
          "type": "address"
        }
      ],
      "stateMutability": "view",
      "type": "function"
    },
    {
      "inputs": [],
      "name": "subscriptionId",
      "outputs": [
        {
          "internalType": "uint64",
          "name": "",
          "type": "uint64"
        }
      ],
      "stateMutability": "view",
      "type": "function"
    },
    {
      "inputs": [],
      "name": "vrfCoordinatorV2",
      "outputs": [
        {
          "internalType": "contract VRFCoordinatorV2Interface",
          "name": "",
          "type": "address"
        }
      ],
      "stateMutability": "view",
      "type": "function"
    }
  ],
  "bytecode": "0x60e06040523480156200001157600080fd5b506040516200190b3803806200190b833981810160405281019062000037919062000288565b838073ffffffffffffffffffffffffffffffffffffffff1660808173ffffffffffffffffffffffffffffffffffffffff1681525050508560a081815250508460c081815250504260018190555083600060016101000a81548173ffffffffffffffffffffffffffffffffffffffff021916908373ffffffffffffffffffffffffffffffffffffffff1602179055508260038190555081600260006101000a81548167ffffffffffffffff021916908367ffffffffffffffff16021790555080600260086101000a81548163ffffffff021916908363ffffffff16021790555050505050505062000324565b600080fd5b6000819050919050565b6200013c8162000127565b81146200014857600080fd5b50565b6000815190506200015c8162000131565b92915050565b600073ffffffffffffffffffffffffffffffffffffffff82169050919050565b60006200018f8262000162565b9050919050565b620001a18162000182565b8114620001ad57600080fd5b50565b600081519050620001c18162000196565b92915050565b6000819050919050565b620001dc81620001c7565b8114620001e857600080fd5b50565b600081519050620001fc81620001d1565b92915050565b600067ffffffffffffffff82169050919050565b620002218162000202565b81146200022d57600080fd5b50565b600081519050620002418162000216565b92915050565b600063ffffffff82169050919050565b620002628162000247565b81146200026e57600080fd5b50565b600081519050620002828162000257565b92915050565b60008060008060008060c08789031215620002a857620002a762000122565b5b6000620002b889828a016200014b565b9650506020620002cb89828a016200014b565b9550506040620002de89828a01620001b0565b9450506060620002f189828a01620001eb565b93505060806200030489828a0162000230565b92505060a06200031789828a0162000271565b9150509295509295509295565b60805160a05160c0516115a262000369600039600081816106c5015261077101526000818161064b015261079501526000818161039401526103e801526115a26000f3fe6080604052600436106100e85760003560e01c8063649677e11161008a57806372cf6e341161005957806372cf6e34146102d5578063947a36fb14610300578063c1af57851461032b578063f71d96cb14610335576100e8565b8063649677e11461021657806367f082b0146102415780636939864b1461026c5780636e04ff0d14610297576100e8565b806324f74697116100c657806324f746971461016c5780633d35c4f5146101975780634585e33b146101c25780634f8c70cf146101eb576100e8565b806309c1ba2e146100ed57806319d8ac61146101185780631fe543e314610143575b600080fd5b3480156100f957600080fd5b50610102610372565b60405161010f9190610c5d565b60405180910390f35b34801561012457600080fd5b5061012d61038c565b60405161013a9190610c91565b60405180910390f35b34801561014f57600080fd5b5061016a60048036038101906101659190610e45565b610392565b005b34801561017857600080fd5b50610181610452565b60405161018e9190610ec0565b60405180910390f35b3480156101a357600080fd5b506101ac610468565b6040516101b99190610f5a565b60405180910390f35b3480156101ce57600080fd5b506101e960048036038101906101e49190610fd0565b61048e565b005b3480156101f757600080fd5b50610200610623565b60405161020d919061103e565b60405180910390f35b34801561022257600080fd5b5061022b610649565b6040516102389190610c91565b60405180910390f35b34801561024d57600080fd5b5061025661066d565b6040516102639190611076565b60405180910390f35b34801561027857600080fd5b50610281610672565b60405161028e9190611108565b60405180910390f35b3480156102a357600080fd5b506102be60048036038101906102b991906111d8565b610683565b6040516102cc9291906112c4565b60405180910390f35b3480156102e157600080fd5b506102ea61076a565b6040516102f79190610ec0565b60405180910390f35b34801561030c57600080fd5b5061031561076f565b6040516103229190610c91565b60405180910390f35b610333610793565b005b34801561034157600080fd5b5061035c600480360381019061035791906112f4565b610900565b6040516103699190611342565b60405180910390f35b600260009054906101000a900467ffffffffffffffff1681565b60015481565b7f000000000000000000000000000000000000000000000000000000000000000073ffffffffffffffffffffffffffffffffffffffff163373ffffffffffffffffffffffffffffffffffffffff161461044457337f00000000000000000000000000000000000000000000000000000000000000006040517f1cf993f400000000000000000000000000000000000000000000000000000000815260040161043b92919061135d565b60405180910390fd5b61044e828261093f565b5050565b600260089054906101000a900463ffffffff1681565b600060019054906101000a900473ffffffffffffffffffffffffffffffffffffffff1681565b60006104a860405180602001604052806000815250610683565b509050806104e2576040517f865676e300000000000000000000000000000000000000000000000000000000815260040160405180910390fd5b60016000806101000a81548160ff0219169083600181111561050757610506611091565b5b021790555060008060019054906101000a900473ffffffffffffffffffffffffffffffffffffffff1673ffffffffffffffffffffffffffffffffffffffff16635d3b1d30600354600260009054906101000a900467ffffffffffffffff166003600260089054906101000a900463ffffffff1660016040518663ffffffff1660e01b815260040161059c95949392919061139f565b602060405180830381600087803b1580156105b657600080fd5b505af11580156105ca573d6000803e3d6000fd5b505050506040513d601f19601f820116820180604052508101906105ee9190611407565b9050807feddaba8a57dcfd3a637ac76edea7af81443028e0bd6e6cb23bd210a4a85ba85660405160405180910390a250505050565b600560009054906101000a900473ffffffffffffffffffffffffffffffffffffffff1681565b7f000000000000000000000000000000000000000000000000000000000000000081565b600381565b60008054906101000a900460ff1681565b6000606060008060009054906101000a900460ff1660018111156106aa576106a9611091565b5b600060018111156106be576106bd611091565b5b14905060007f0000000000000000000000000000000000000000000000000000000000000000600154426106f29190611463565b119050600080471190506000806004805490501190508280156107125750835b801561071b5750815b80156107245750805b9550856040518060400160405280600381526020017f30783000000000000000000000000000000000000000000000000000000000008152509550955050505050915091565b600181565b7f000000000000000000000000000000000000000000000000000000000000000081565b7f00000000000000000000000000000000000000000000000000000000000000003410156107ed576040517f7eaf1a9500000000000000000000000000000000000000000000000000000000815260040160405180910390fd5b6000600181111561080157610800611091565b5b60008054906101000a900460ff16600181111561082157610820611091565b5b14610858576040517f57a990f400000000000000000000000000000000000000000000000000000000815260040160405180910390fd5b6004339080600181540180825580915050600190039060005260206000200160009091909190916101000a81548173ffffffffffffffffffffffffffffffffffffffff021916908373ffffffffffffffffffffffffffffffffffffffff1602179055503373ffffffffffffffffffffffffffffffffffffffff167f4c72b57c1ca715219cf2c7be9edc8a3ea19dfb9a76fb7a05e2a8062a027ee97060405160405180910390a2565b6004818154811061091057600080fd5b906000526020600020016000915054906101000a900473ffffffffffffffffffffffffffffffffffffffff1681565b60006004805490508260008151811061095b5761095a611497565b5b602002602001015161096d91906114f5565b905060006004828154811061098557610984611497565b5b9060005260206000200160009054906101000a900473ffffffffffffffffffffffffffffffffffffffff16905080600560006101000a81548173ffffffffffffffffffffffffffffffffffffffff021916908373ffffffffffffffffffffffffffffffffffffffff160217905550600067ffffffffffffffff811115610a0e57610a0d610d02565b5b604051908082528060200260200182016040528015610a3c5781602001602082028036833780820191505090505b5060049080519060200190610a52929190610b93565b5060008060006101000a81548160ff02191690836001811115610a7857610a77611091565b5b0217905550426001819055506000600560009054906101000a900473ffffffffffffffffffffffffffffffffffffffff1673ffffffffffffffffffffffffffffffffffffffff1647604051610acc90611557565b60006040518083038185875af1925050503d8060008114610b09576040519150601f19603f3d011682016040523d82523d6000602084013e610b0e565b606091505b5050905080610b49576040517f90b8ec1800000000000000000000000000000000000000000000000000000000815260040160405180910390fd5b8173ffffffffffffffffffffffffffffffffffffffff167f5b690ec4a06fe979403046eaeea5b3ce38524683c3001f662c8b5a829632f7df60405160405180910390a25050505050565b828054828255906000526020600020908101928215610c0c579160200282015b82811115610c0b5782518260006101000a81548173ffffffffffffffffffffffffffffffffffffffff021916908373ffffffffffffffffffffffffffffffffffffffff16021790555091602001919060010190610bb3565b5b509050610c199190610c1d565b5090565b5b80821115610c36576000816000905550600101610c1e565b5090565b600067ffffffffffffffff82169050919050565b610c5781610c3a565b82525050565b6000602082019050610c726000830184610c4e565b92915050565b6000819050919050565b610c8b81610c78565b82525050565b6000602082019050610ca66000830184610c82565b92915050565b6000604051905090565b600080fd5b600080fd5b610cc981610c78565b8114610cd457600080fd5b50565b600081359050610ce681610cc0565b92915050565b600080fd5b6000601f19601f8301169050919050565b7f4e487b7100000000000000000000000000000000000000000000000000000000600052604160045260246000fd5b610d3a82610cf1565b810181811067ffffffffffffffff82111715610d5957610d58610d02565b5b80604052505050565b6000610d6c610cac565b9050610d788282610d31565b919050565b600067ffffffffffffffff821115610d9857610d97610d02565b5b602082029050602081019050919050565b600080fd5b6000610dc1610dbc84610d7d565b610d62565b90508083825260208201905060208402830185811115610de457610de3610da9565b5b835b81811015610e0d5780610df98882610cd7565b845260208401935050602081019050610de6565b5050509392505050565b600082601f830112610e2c57610e2b610cec565b5b8135610e3c848260208601610dae565b91505092915050565b60008060408385031215610e5c57610e5b610cb6565b5b6000610e6a85828601610cd7565b925050602083013567ffffffffffffffff811115610e8b57610e8a610cbb565b5b610e9785828601610e17565b9150509250929050565b600063ffffffff82169050919050565b610eba81610ea1565b82525050565b6000602082019050610ed56000830184610eb1565b92915050565b600073ffffffffffffffffffffffffffffffffffffffff82169050919050565b6000819050919050565b6000610f20610f1b610f1684610edb565b610efb565b610edb565b9050919050565b6000610f3282610f05565b9050919050565b6000610f4482610f27565b9050919050565b610f5481610f39565b82525050565b6000602082019050610f6f6000830184610f4b565b92915050565b600080fd5b60008083601f840112610f9057610f8f610cec565b5b8235905067ffffffffffffffff811115610fad57610fac610f75565b5b602083019150836001820283011115610fc957610fc8610da9565b5b9250929050565b60008060208385031215610fe757610fe6610cb6565b5b600083013567ffffffffffffffff81111561100557611004610cbb565b5b61101185828601610f7a565b92509250509250929050565b600061102882610edb565b9050919050565b6110388161101d565b82525050565b6000602082019050611053600083018461102f565b92915050565b600061ffff82169050919050565b61107081611059565b82525050565b600060208201905061108b6000830184611067565b92915050565b7f4e487b7100000000000000000000000000000000000000000000000000000000600052602160045260246000fd5b600281106110d1576110d0611091565b5b50565b60008190506110e2826110c0565b919050565b60006110f2826110d4565b9050919050565b611102816110e7565b82525050565b600060208201905061111d60008301846110f9565b92915050565b600080fd5b600067ffffffffffffffff82111561114357611142610d02565b5b61114c82610cf1565b9050602081019050919050565b82818337600083830152505050565b600061117b61117684611128565b610d62565b90508281526020810184848401111561119757611196611123565b5b6111a2848285611159565b509392505050565b600082601f8301126111bf576111be610cec565b5b81356111cf848260208601611168565b91505092915050565b6000602082840312156111ee576111ed610cb6565b5b600082013567ffffffffffffffff81111561120c5761120b610cbb565b5b611218848285016111aa565b91505092915050565b60008115159050919050565b61123681611221565b82525050565b600081519050919050565b600082825260208201905092915050565b60005b8381101561127657808201518184015260208101905061125b565b83811115611285576000848401525b50505050565b60006112968261123c565b6112a08185611247565b93506112b0818560208601611258565b6112b981610cf1565b840191505092915050565b60006040820190506112d9600083018561122d565b81810360208301526112eb818461128b565b90509392505050565b60006020828403121561130a57611309610cb6565b5b600061131884828501610cd7565b91505092915050565b600061132c82610edb565b9050919050565b61133c81611321565b82525050565b60006020820190506113576000830184611333565b92915050565b6000604082019050611372600083018561102f565b61137f602083018461102f565b9392505050565b6000819050919050565b61139981611386565b82525050565b600060a0820190506113b46000830188611390565b6113c16020830187610c4e565b6113ce6040830186611067565b6113db6060830185610eb1565b6113e86080830184610eb1565b9695505050505050565b60008151905061140181610cc0565b92915050565b60006020828403121561141d5761141c610cb6565b5b600061142b848285016113f2565b91505092915050565b7f4e487b7100000000000000000000000000000000000000000000000000000000600052601160045260246000fd5b600061146e82610c78565b915061147983610c78565b92508282101561148c5761148b611434565b5b828203905092915050565b7f4e487b7100000000000000000000000000000000000000000000000000000000600052603260045260246000fd5b7f4e487b7100000000000000000000000000000000000000000000000000000000600052601260045260246000fd5b600061150082610c78565b915061150b83610c78565b92508261151b5761151a6114c6565b5b828206905092915050565b600081905092915050565b50565b6000611541600083611526565b915061154c82611531565b600082019050919050565b600061156282611534565b915081905091905056fea26469706673582212200096b5bc9257de98b4edda2799594799ce679f69b5c6451785a5a1bda9fef3c264736f6c63430008090033",
  "linkReferences": {},
  "deployedLinkReferences": {}
}